:0A0000000C942A000C9400000C94EC
:10000A0000000C9400000C9400000C9400000C9466
:10001A0000000C9400000C9400000C9400000C9456
:10002A0000000C9400000C9400000C9400000C9446
:10003A0000000C9400000C9400000C9400000C9436
:10004A0000000C9400000C940000F894EE27ECBB1E
:10005A00F1E0FBBFEBBFE5BF8DE0A2E0BB27ED936C
:10006A008A95E9F780E098E0A0E6ED930197E9F731
:10007A00EFE5EDBFE8E0EEBFC0E6D2E00C94450044
:10008A00EFEFE4BBE0E0E5BBE1E00ED0E2E00CD04C
:10009A00E4E00AD0E8E008D0E0E10BD0E0E209D0E1
:1000AA00E0E407D0F1CFFFCFE5BBA2E3B0E00C94C8
:1000BA006300E5BBACE3B0E00C946300109639F042
:1000CA00A89580ED97E00197F1F71197C9F7089580
:00000001FF
